:100000000C945E000C9486000C9486000C94860080
:100010000C9486000C9486000C9486000C94860048
:100020000C9486000C9486000C9486000C94860038
:100030000C9486000C9486000C9486000C94860028
:100040000C9426040C9486000C946E030C944803C4
:100050000C9486000C9486000C9486000C94860008
:100060000C9470040C94860000000000240027000B
:100070002A0000000000250028002B0004040404CE
:100080000404040402020202020203030303030342
:10009000010204081020408001020408102001021F
:1000A00004081020000000080002010000030407FB
:1000B0000000000000000000C80CC20C11241FBE8C
:1000C000CFEFD8E0DEBFCDBF23E0ACE3B2E001C0AC
:1000D0001D92AC3CB207E1F712E0A0E0B1E0E0EB2A
:1000E000F3E202C005900D92AC33B107D9F710E0EE
:1000F000CDE5D0E004C02197FE010E94B00FCC35C1
:10010000D107C9F70E94B2080C94CB110C940000DF
:10011000CF92DF92EF92FF920F931F93CF93DF93D3
:100120006C017A018B01C0E0D0E0CE15DF0589F0CB
:10013000D8016D918D01D601ED91FC910190F08176
:10014000E02DC6010995892B11F47E0102C021968C
:10015000ECCFC701DF91CF911F910F91FF90EF90EE
:10016000DF90CF900895FC01918D828D981761F0FA
:10017000828DDF01A80FB11D5D968C91928D9F5FDE
:100180009F73928F90E008958FEF9FEF0895FC0189
:10019000918D828D981731F0828DE80FF11D858D3C
:1001A00090E008958FEF9FEF0895FC01918D228DCF
:1001B000892F90E0805C9F4F821B91098F73992754
:1001C000089586E193E00E94D50021E0892B09F48F
:1001D00020E0822F0895FC01848DDF01A80FB11D5E
:1001E000A35ABF4F2C91848D90E001968F7399276D
:1001F000848FA689B7892C93A089B1898C9180645A
:100200008C93938D848D981306C00288F389E02D1A
:1002100080818F7D80830895EF92FF920F931F93CB
:10022000CF93DF93EC0181E0888F9B8D8C8D9813A9
:1002300005C0E889F989808185FD24C0F62E0B8DE3
:1002400010E00F5F1F4F0F731127E02E8C8DE81207
:100250000CC00FB607FCFACFE889F989808185FFC9
:10026000F5CFCE010E94EB00F1CF8B8DFE01E80FA0
:10027000F11DE35AFF4FF0820B8FEA89FB898081E1
:10028000806207C0EE89FF896083E889F9898081EF
:100290008064808381E090E0DF91CF911F910F9186
:1002A000FF90EF900895CF93DF93EC01888D882322
:1002B000C9F0EA89FB89808185FD05C0A889B989D3
:1002C0008C9186FD0FC00FB607FCF5CF808185FFAE
:1002D000F2CFA889B9898C9185FFEDCFCE010E941C
:1002E000EB00E7CFDF91CF910895CF93DF9390E0BC
:1002F000FC01E057FF4F2491FC01E458FF4F84912B
:10030000882361F190E0880F991FFC01E859FF4FA5
:10031000C591D491FC01EE58FF4FA591B4916111A4
:1003200009C09FB7F8948881209582238883EC9137
:100330002E230BC0623061F49FB7F8943881822F6E
:10034000809583238883EC912E2B2C939FBF06C02E
:100350008FB7F894E8812E2B28838FBFDF91CF9140
:1003600008958E3008F08E508770806480937C00F2
:1003700080917A00806480937A0080917A0086FD73
:10038000FCCF809178002091790090E0922B089525
:100390003FB7F8948091A4029091A502A091A60283
:1003A000B091A70226B5A89B05C02F3F19F0019672
:1003B000A11DB11D3FBFBA2FA92F982F8827820FEB
:1003C000911DA11DB11DBC01CD0142E0660F771F3B
:1003D000881F991F4A95D1F7089585ED8093BC0039
:1003E0008091BC0084FDFCCF1092110308954091D0
:1003F0007E02262F30E0240F311D21323105DCF43E
:10040000209111032430C9F4FC0180E090E08617AC
:1004100058F430917E022191DC01A45ABD4FA30F04
:10042000B11D2C930196F3CF80917E02680F6093EB
:100430007E0280E0089581E0089582E008950895A5
:10044000E091150380911403E81730F4F0E0E753CE
:10045000FD4F808190E008958FEF9FEF0895909178
:10046000150380911403981750F4E92FF0E0E75337
:10047000FD4F208130E09F5F9093150302C02FEF66
:100480003FEFC90108958091140390E02091150376
:10049000821B91090895CF92DF92EF92FF920F9302
:1004A0001F93CF93DF937C01262F972F8A01809192
:1004B0000E03882391F0C62FD72F6E01C40ED51ED0
:1004C000CC15DD0571F06991D701ED91FC9101909A
:1004D000F081E02DC7010995F3CF642F822F0E9490
:1004E000F701C801DF91CF911F910F91FF90EF901D
:1004F000DF90CF900895CF93DF931F92CDB7DEB7F3
:10050000698320910E032223D1F02091120320321F
:1005100040F021E030E0FC013383228380E090E072
:1005200015C080911303E82FF0E0E45CFD4F998142
:1005300090838F5F809313038093120305C061E063
:10054000CE0101960E94F70181E090E00F90DF91CB
:10055000CF9108950E94AD110F931F93CF93DF9316
:10056000EC0188819981009729F02A813B81261727
:10057000370788F48B016F5F7F4F0E94E31000976D
:1005800061F0998388831B830A832C813D81232B0F
:1005900011F4FC01108281E001C080E0DF91CF9175
:1005A0001F910F910895FF920F931F93CF93DF93A5
:1005B00000D0CDB7DEB7FF24F39486E193E00E942C
:1005C000D500892B61F186E193E00E94B3008A3067
:1005D00019F189831A820091C3031091C4030F5F3C
:1005E0001F4FB8018FEB93E00E94AC02882329F3E0
:1005F0002091BF033091C0038091C3039091C40345
:10060000BE016F5F7F4F820F931F0E94C411109332
:10061000C4030093C303D1CFF092C802CECF0F9092
:100620000F90DF91CF911F910F91FF9008950E943D
:10063000E10081110C94D3020895EF92FF920F9381
:100640001F93CF93DF93EC017B018A01BA010E94D3
:10065000AC022881398181110DC02115310519F0B5
:10066000C9010E944B10198218821D821C821B82B4
:100670001A8206C01D830C83B701C9010E94C411F0
:10068000CE01DF91CF911F910F91FF90EF900895D0
:100690001F920F920FB60F9211242F933F934F93F7
:1006A0005F936F937F938F939F93AF93BF93EF93DA
:1006B000FF9386E193E00E94EB00FF91EF91BF91E1
:1006C000AF919F918F917F916F915F914F913F91EA
:1006D0002F910F900FBE0F901F9018951F920F92A1
:1006E0000FB60F9211242F938F939F93EF93FF9345
:1006F000E0912603F09127038081E0912C03F09193
:100700002D0382FD12C0908180912F038F5F8F7324
:1007100020913003821751F0E0912F03F0E0EA5E60
:10072000FC4F958F80932F0301C08081FF91EF9143
:100730009F918F912F910F900FBE0F901F90189542
:1007400090E0FC01EC55FF4F3491FC01E057FF4F66
:100750002491FC01E458FF4FE491EE2309F43BC0DF
:10076000332339F1333091F038F43130A9F032309D
:1007700001F584B58F7D12C0373091F03830A1F08B
:100780003430B9F4809180008F7D03C08091800067
:100790008F77809380000DC084B58F7784BD09C0AA
:1007A0008091B0008F7703C08091B0008F7D8093DF
:1007B000B000F0E0EE0FFF1FEE58FF4FA591B4918F
:1007C0008FB7F894EC91611103C020952E2301C0DE
:1007D0002E2B2C938FBF08958F929F92AF92BF9232
:1007E000CF92DF92EF92FF926B017C010E94C801D1
:1007F0004B015C01C114D104E104F104F1F00E9449
:10080000C801DC01CB0188199909AA09BB09883EF6
:100810009340A105B10570F321E0C21AD108E108A7
:10082000F10888EE880E83E0981EA11CB11CC1144B
:10083000D104E104F10419F7DDCFFF90EF90DF90D0
:10084000CF90BF90AF909F908F9008951F920F927E
:100850000FB60F9211242F933F938F939F93AF93D3
:10086000BF938091A8029091A902A091AA02B09191
:10087000AB023091A30223E0230F2D3720F4019621
:10088000A11DB11D05C026E8230F0296A11DB11DB3
:100890002093A3028093A8029093A902A093AA0296
:1008A000B093AB028091A4029091A502A091A60200
:1008B000B091A7020196A11DB11D8093A40290934F
:1008C000A502A093A602B093A702BF91AF919F91FA
:1008D0008F913F912F910F900FBE0F901F90189501
:1008E0001F920F920FB60F9211242F933F934F93A5
:1008F0005F936F937F938F939F93AF93BF93EF9388
:10090000FF938091B900887F803609F49CC068F518
:10091000883209F45BC090F4803109F454C038F493
:10092000882309F4F6C0883009F44DC0F6C0883138
:1009300009F44CC0803209F45DC0EFC0803409F482
:1009400068C048F4803309F455C0883309F0E5C025
:1009500080930C03D8C0803509F44FC0883509F462
:100960005DC0883409F0D9C0D6C0883909F4C7C041
:10097000A8F4883709F467C038F4883609F463C0EE
:10098000803709F460C0C9C0883809F4B8C080391C
:1009900009F45FC0803809F0C0C05BC0803B09F437
:1009A00086C038F4803A09F466C0883A09F47FC0FA
:1009B000B4C0803C09F4A7C0883C09F4A4C0883BBB
:1009C00009F48AC0AAC08091090310C090910B035A
:1009D00080910A03981770F5E0910B0381E08E0F68
:1009E00080930B03F0E0E751FD4F80818093BB00C3
:1009F00085EC86C080930C038EC0E0910B0381E0F0
:100A00008E0F80930B038091BB00F0E0E751FD4F08
:100A1000808390910B0380910A036EC0E0910B03D9
:100A200081E08E0F80930B038091BB00F0E0E751D3
:100A3000FD4F80838091100381116DC081E0809310
:100A40000F0384EA61C083E0809311031092A20235
:100A5000CFCF8091A202803208F051C0E091A20273
:100A600081E08E0F8093A2028091BB00F0E0EE57F0
:100A7000FD4F8083BDCF85EC8093BC0010921103A5
:100A80008091A202803230F4E091A202F0E0EE57B1
:100A9000FD4F10826091A20270E0E0918002F0911F
:100AA000810282E892E009951092A20236C084E0A9
:100AB0008093110310927F0210927E02E0917C02DB
:100AC000F0917D02099580917E02811105C081E03F
:100AD00080937E0210925C02E0917F0281E08E0F93
:100AE00080937F02F0E0E45AFD4F80818093BB0049
:100AF00090917F0280917E02981708F479CF85E863
:100B00008093BC000AC085EC8093BC001092110356
:100B100004C010920C030E94ED01FF91EF91BF9170
:100B2000AF919F918F917F916F915F914F913F9185
:100B30002F910F900FBE0F901F90189520911203C8
:100B400090910D03213208F049C080911103811169
:100B5000FCCF32E030931103609310033FEF3093EA
:100B60000C0310920B0320930A03ACE3B2E049EEAE
:100B700052E0FA013E2F341B321718F43D913193A5
:100B8000F9CF1092090320910903990F922B9093AA
:100B9000090390910F03913061F410920F0390912B
:100BA00009039093BB009091BC0093FDF8CF95ECA6
:100BB00001C095EE9093BC00909111039230E1F347
:100BC00090910C039F3F79F080910C03803241F0AB
:100BD00080910C03803331F084E005C081E003C0D4
:100BE00082E001C083E0109213031092120310926E
:100BF0000E030895862F413208F040E2642F0E94D0
:100C0000A90610921503809314030895009769F0C4
:100C1000FC0101900020E9F73197AF01481B590B07
:100C2000BC0186E193E00C94880080E090E0089598
:100C30008F929F92AF92BF920F931F93CF93DF93A8
:100C4000CDB7DEB7A1970FB6F894DEBF0FBECDBF0C
:100C500019A2423008F44AE08E010F5D1F4F842E26
:100C6000912CA12CB12CA50194010E948E0FE62F8E
:100C7000B901CA0101501109EA3014F4E05D01C064
:100C8000E95CD801EC93232B242B252B61F7C801B9
:100C90000E940606A1960FB6F894DEBF0FBECDBF28
:100CA000DF91CF911F910F91BF90AF909F908F9048
:100CB0000895CF93DF930E940606EC0184E591E04E
:100CC0000E9406068C0F9D1FDF91CF910895109210
:100CD0001503109214031092130310921203109232
:100CE000110381E08093100310920F0361E082E111
:100CF0000E94A00361E083E10E94A003E9EBF0E021
:100D000080818E7F808380818D7F808388E4809343
:100D1000B80085E48093BC000895CF93C62F91E07E
:100D200090930E0390E690930D031092130310928C
:100D30001203682F83EB93E00E947B026C2F83EBFE
:100D400093E00E947B0261E083EB93E0CF910C94EF
:100D50009E05909111039111FCCF91E090931103A6
:100D6000909310032FEF20930C0310920B03260F88
:100D700020930A039093090390910903880F892B0C
:100D80008093090380910F03813061F410920F0367
:100D9000809109038093BB008091BC0083FDF8CF54
:100DA00085EC01C085EE8093BC00809111038130F9
:100DB000E1F380910B03861710F460910B03A9EE09
:100DC000B2E029EC32E0F9018E2F821B861718F46D
:100DD0008D918193F9CF862F089591E090930E0322
:100DE00090E690930D031092130310921203682F54
:100DF00083EB93E00E947B0260E083EB93E00E9430
:100E00009E0541E050E060E670E083EB93E00E94D5
:100E1000FA0583EB93E00E942F02089586E20E9478
:100E2000ED06682F6F7786E20C948D0686E20E94AD
:100E3000ED06682F686386E20C948D0686E20E94B8
:100E4000ED06682F6D7F86E20E948D0686E20E9485
:100E5000ED06682F626086E20C948D068F929F9259
:100E6000AF92BF92CF92DF92EF92FF92CF9391E039
:100E700090930E0390E490930D031092130310923D
:100E80001203A091C503B091C603ED91FC91119797
:100E90000190F081E02D682FCD01099561E08091EE
:100EA000C5039091C6030E949E05CAE06AE070E007
:100EB00080E090E00E94EC0363E080E40E94A906D9
:100EC0001092150380931403C15009F456C0833067
:100ED00069F78091C5039091C603DC01ED91FC9107
:100EE0000680F781E02D0995D82E8091C503909159
:100EF000C603DC01ED91FC910680F781E02D099598
:100F0000C82F8091C5039091C603DC01ED91FC913F
:100F10000680F781E02D0995FD2CE12C97012C2B03
:100F2000A90160E070E0762F652F542F4427482BED
:100F300087E190E0C12CE0E8DE2EE8E9EE2EF12C0E
:100F40004A015B01082E04C0B694A7949794879435
:100F50000A94D2F780FE04C04C255D256E257F25BE
:100F6000F694E794D794C79401978730910541F799
:100F7000411106C0C9018C7F05C086EE93E002C016
:100F800087EE93E0CF91FF90EF90DF90CF90BF90EE
:100F9000AF909F908F9008950C9406064F925F92A9
:100FA0006F927F928F929F92AF92BF92CF92DF9279
:100FB000EF92FF926B017C01B42E9B01AC010E9469
:100FC000890F882319F08FE292E027C026013701AC
:100FD000E89477F82FEF3FEF4FE75FE7C301B201E7
:100FE0000E94890F81110DC02FEF3FEF4FE75FE7A0
:100FF000C301B2010E94180D18161CF483E392E09D
:101000000CC02FEF3FEF4FE75FE4C701B6010E942E
:10101000840F181684F487E392E0FF90EF90DF903E
:10102000CF90BF90AF909F908F907F906F905F9088
:101030004F900C9406062FEF3FEF4FE75FECC70190
:10104000B6010E94180D87FDE6CF20E030E0A9012F
:10105000C701B6010E94180D87FF11C0E091160369
:10106000F09117030190F081E02D6DE286E193E0AD
:1010700009954C01F7FAF094F7F8F09402C0812C2E
:10108000912CA12C60E070E080E09FE3AB1441F074
:1010900020E030E040E251E40E94E30EA394F6CF5A
:1010A0009B01AC01C701B6010E94770E2B013C01E8
:1010B0000E94550F6B017C010E941D0D9B01AC012C
:1010C000C301B2010E94760E2B013C014AE0C70128
:1010D000B6010E9418067C01E80CF91CBB2069F0DF
:1010E000E0911603F09117030190F081E02D6EE27C
:1010F00086E193E00995E80EF91EDB2CDD2021F155
:1011000020E030E040E251E4C301B2010E947E0DD4
:101110002B013C010E94550F4B01A12CB12C4AE040
:10112000C501B4010E941806E80EF91EC501B401FC
:101130000E941D0D9B01AC01C301B2010E94760EFD
:101140002B013C01DA94DACFC701FF90EF90DF90DA
:10115000CF90BF90AF909F908F907F906F905F9057
:101160004F900895CF93DF93CDB7DEB762970FB658
:10117000F894DEBF0FBECDBF789484B5826084BD85
:1011800084B5816084BD85B5826085BD85B581608B
:1011900085BD80916E00816080936E001092810009
:1011A00080918100826080938100809181008160C4
:1011B0008093810080918000816080938000809185
:1011C000B10084608093B1008091B0008160809311
:1011D000B00080917A00846080937A0080917A00D8
:1011E000826080937A0080917A00816080937A0097
:1011F00080917A00806880937A001092C100E0911B
:101200002603F091270382E08083E0912203F0918E
:1012100023031082E0912403F09125038FEC808357
:1012200010922E03E0912A03F0912B0386E0808335
:10123000E0912803F0912903808180618083E0910F
:101240002803F0912903808188608083E09128033E
:10125000F0912903808180688083E0912803F091D8
:10126000290380818F7D808386E291E00E94590668
:101270008DE391E00E94590684E591E00E94060604
:1012800061E087E00E94750161E088E00E947501DD
:1012900060E081E10E94750160E08FE00E947501CD
:1012A0000E9467060E940E070E94160767E083E10E
:1012B0000E948D0683EB93E09093C6038093C50351
:1012C0000E94670668EC70E08FEB93E00E94AC022E
:1012D0001092B0021092B1021092B2021092B302B8
:1012E0001092B4021092B5021092B6021092B70298
:1012F0001092B8021092B9021092BA021092BB0278
:101300001092BC021092BD021092BE021092BF0257
:101310001092C0021092C1021092C2021092C30237
:101320001092C4021092C5021092C6021092C70217
:101330002FB7F8948091A8029091A902A091AA02D7
:10134000B091AB022FBF8093AC029093AD02A093FB
:10135000AE02B093AF0287E591E00E9459068091FA
:10136000C802882309F40BC38EE691E00E94CC07E3
:101370004091C3035091C4036091BF037091C003B7
:1013800086E193E00E94880084E591E00E940606D1
:101390000091BF031091C0030115110509F448C065
:1013A000A090C303B090C403A114B10409F440C0D9
:1013B000680176012FEFC21AD20AD7018C91082E4C
:1013C000000C990B0E940F0D892B99F76501B1E074
:1013D000CB1AD108C00ED11ED6018C91082E000C5C
:1013E000990B0E940F0D892B89F4A6014F5F5F4F67
:1013F0004E195F095093C4034093C3030E151F0594
:1014000060F4B701C8010E94B21107C0CE14DF0416
:1014100060F3E1E0CE1AD108DFCFE091BF03F09195
:10142000C0038091C3039091C403E80FF91F108299
:101430008091C3039091C403892B09F492C26CE795
:1014400071E08091BF039091C0030E94BB11892B72
:1014500009F087C280E891E00E94CC0761E087E054
:101460000E94A00385EF0E942E079C01265E334058
:10147000BC0180E090E02230310518F40E941D0D7F
:101480000EC00E941D0D20E030E04AEF5AE30E949A
:101490007E0D20E030E040EC50E40E94760E6B01BF
:1014A0007C0120E030E849E754E40E94180D8111E6
:1014B00017C08BE891E00E9459060E9467060E94BF
:1014C0000E070E94160767E083E10E948D0683EBFA
:1014D00093E09093C6038093C5030E946706CAC138
:1014E00083EF0E942E079C01265E3340BC0180E002
:1014F00090E02230310518F40E941D0D0EC00E94AC
:101500001D0D22E538EB4FE25BE30E947E0D26E6DF
:1015100036E64BE352E40E94760E4B015C0180E01C
:101520000E94ED0680E00E94ED0681E080930E03AC
:10153000B0E6B0930D03109213031092120361E012
:1015400083EB93E00E947B0260E083EB93E00E94D8
:101550009E0543E050E060E670E083EB93E00E947C
:10156000FA05833009F047C083EB93E00E942F0215
:10157000082F83EB93E00E942F02182F83EB93E058
:101580000E942F028A8B0E941E07812F90E0A0E00C
:10159000B0E0BA2FA92F982F8827A02B2A89822B59
:1015A0002073022F10E044E0159507954A95E1F766
:1015B000BC01CD0156E095958795779567955A952D
:1015C000D1F70E941F0D2B013C01B80180E090E093
:1015D0000E941D0D20E030E040E85EE30E947E0D99
:1015E0009B01AC01C301B2010E94770E69837A832B
:1015F0008B839C8308C080E090ECA9E7B4EC8983DE
:101600009A83AB83BC8380E00E94ED0609E512E07B
:1016100080E00E94ED0681FD11C00150110939F4EE
:1016200010E000EC99E7392E24EC222E73C061E023
:1016300070E080E090E00E94EC03EACF81E08093CC
:101640000E0390E690930D03109213031092120371
:1016500064E083EB93E00E947B0260E083EB93E025
:101660000E949E0542E050E060E670E083EB93E06C
:101670000E94FA058230A1F683EB93E00E942F02CC
:10168000182F83EB93E00E942F028F870E941E0782
:101690008F8517FD04C0912F182F00E00DC01E8309
:1016A0001D826D817E81680F711D71956195710933
:1016B000972F162F107F01E0692F70E080E090E0F7
:1016C0000E941F0D2B013C01612F70E084E0759595
:1016D00067958A95E1F7072E000C880B990B0E94FD
:1016E0001F0D20E030E040E85DE30E947E0D9B018D
:1016F000AC01C301B2010E94770E002339F09B01B7
:10170000AC0160E070E0CB010E94760E162F072F2F
:10171000382E292E81E10E94B101BC01990F880B5E
:10172000990B0E941F0D9B01AC018FE02A8B3F8714
:10173000488B598B0E94B10198878F832A893F85F6
:101740004889598963E373E383E590E40E94E30EDB
:101750002B013C01AF81B885BD01BB0F880B990BF4
:101760000E941F0D9B01AC01C301B2010E947E0DBE
:101770006F83788789879A8781E10E94B101BC01D4
:10178000990F880B990B0E941F0D6B877C878D87A3
:101790009E8780E10E94B101BC01990F880B990BD3
:1017A0000E941F0D2B013C01C092B002D092B102E9
:1017B000E092B202F092B3028092B4029092B5022B
:1017C000A092B602B092B70289819A81AB81BC81A6
:1017D0008093B8029093B902A093BA02B093BB026F
:1017E00020E030E040E151E4612F702F832D922DF5
:1017F0000E947E0D20E030E040EA50E40E94E30EBB
:1018000020E030E040E052E40E94770E6093BC029A
:101810007093BD028093BE029093BF028F81988522
:10182000A985BA858093C0029093C102A093C20299
:10183000B093C3022B853C854D855E8563E373E3DE
:1018400083E590E40E94E30EA30192010E947E0DC5
:101850002DEC3CEC4CE950E40E947E0D6093C402F8
:101860007093C5028093C6029093C70260E087E040
:101870000E94A00382ED91E00E94CC076091B0022B
:101880007091B1028091B2029091B30242E00E9445
:10189000CE078EED91E00E94CC0781EE91E00E9490
:1018A000CC076091B4027091B5028091B60290911C
:1018B000B70242E00E94CE078CEE91E00E94CC0776
:1018C0008FEE91E00E94CC076091B8027091B9024E
:1018D0008091BA029091BB0242E00E94CE078CEF49
:1018E00091E00E94CC0780E092E00E94CC076091DA
:1018F000BC027091BD028091BE029091BF0242E095
:101900000E94CE078BE092E00E94CC078EE092E02E
:101910000E94CC076091C0027091C1028091C20206
:101920009091C30242E00E94CE078CE192E00E94B7
:10193000CC078FE192E00E94CC076091C4027091C5
:10194000C5028091C6029091C70242E00E94CE0774
:101950008AE292E00E94CC0784E591E00E940606AC
:1019600004C08CE292E00E94590640E050E066E537
:1019700071E08FEB93E00E941D031092C8020E9459
:101980001703EDCC8091BF039091C0030C944B10D2
:10199000E6E1F3E01382128288EE93E0A0E0B0E08B
:1019A00084839583A683B7832AE031E03183208343
:1019B00025EC30E03587248724EC30E03787268714
:1019C00020EC30E0318B208B21EC30E0338B228B0C
:1019D00022EC30E0358B248B26EC30E0378B268BE5
:1019E000118E128E138E148EE3EBF3E013821282AB
:1019F00084839583A683B7838AE191E09183808372
:101A0000EFEBF3E0118210821382128215821482AE
:101A100040E050E066E571E0CF010C941D039111A8
:101A20000C94EB0D803219F089508550C8F7089559
:101A30000E945A0D08F481E00895E89409C097FBCC
:101A40003EF490958095709561957F4F8F4F9F4F95
:101A50009923A9F0F92F96E9BB279395F6958795D9
:101A600077956795B795F111F8CFFAF4BB0F11F49C
:101A700060FF1BC06F5F7F4F8F4F9F4F16C0882343
:101A800011F096E911C0772321F09EE8872F762F79
:101A900005C0662371F096E8862F70E060E02AF0BA
:101AA0009A95660F771F881FDAF7880F96958795A6
:101AB00097F90895990F0008550FAA0BE0E8FEEF7B
:101AC00016161706E807F907C0F012161306E40702
:101AD000F50798F0621B730B840B950B39F40A26FB
:101AE00061F0232B242B252B21F408950A2609F4D9
:101AF000A140A6958FEF811D811D08950E94910D33
:101B00000C94050E0E94F70D38F00E94FE0D20F097
:101B1000952311F00C94EE0D0C94F40D11240C94FB
:101B2000390E0E94160E70F3959FC1F3950F50E089
:101B3000551F629FF001729FBB27F00DB11D639F7F
:101B4000AA27F00DB11DAA1F649F6627B00DA11D25
:101B5000661F829F2227B00DA11D621F739FB00DCB
:101B6000A11D621F839FA00D611D221F749F33273B
:101B7000A00D611D231F849F600D211D822F762FD4
:101B80006A2F11249F5750409AF0F1F088234AF0B1
:101B9000EE0FFF1FBB1F661F771F881F915050401D
:101BA000A9F79E3F510580F00C94EE0D0C94390E70
:101BB0005F3FE4F3983ED4F3869577956795B795A4
:101BC000F795E7959F5FC1F7FE2B880F911D9695BE
:101BD000879597F9089599278827089597F99F671A
:101BE00080E870E060E008959FEF80EC08950024A5
:101BF0000A941616170618060906089500240A9472
:101C000012161306140605060895092E0394000CF7
:101C100011F4882352F0BB0F40F4BF2B11F460FF86
:101C200004C06F5F7F4F8F4F9F4F089557FD9058AF
:101C3000440F551F59F05F3F71F04795880F97FB90
:101C4000991F61F09F3F79F087950895121613064A
:101C50001406551FF2CF4695F1DF08C01616170679
:101C60001806991FF1CF86957105610508940895AE
:101C7000E894BB2766277727CB0197F908952F9221
:101C80003F924F925F926F927F928F929F92AF920C
:101C9000BF92CF92DF92EF92FF920F931F93CF9359
:101CA000DF93CDB7DEB7CA1BDB0B0FB6F894DEBFF0
:101CB0000FBECDBF09942A88398848885F846E8416
:101CC0007D848C849B84AA84B984C884DF80EE8060
:101CD000FD800C811B81AA81B981CE0FD11D0FB669
:101CE000F894DEBF0FBECDBFED0108955058BB275D
:101CF000AA270E948E0E0C94050E0E94F70D38F054
:101D00000E94FE0D20F039F49F3F19F426F40C9444
:101D1000F40D0EF4E095E7FB0C94EE0DE92F0E9414
:101D2000160E58F3BA17620773078407950720F059
:101D300079F4A6F50C94380E0EF4E0950B2EBA2F1C
:101D4000A02D0B01B90190010C01CA01A0011124C1
:101D5000FF27591B99F0593F50F4503E68F11A166D
:101D6000F040A22F232F342F4427585FF3CF4695FE
:101D700037952795A795F0405395C9F77EF41F1620
:101D8000BA0B620B730B840BBAF09150A1F0FF0FEA
:101D9000BB1F661F771F881FC2F70EC0BA0F621FD6
:101DA000731F841F48F4879577956795B795F795C6
:101DB0009E3F08F0B0CF9395880F08F09927EE0F5B
:101DC0009795879508950E94F70E0C94050E0E9432
:101DD000FE0D58F00E94F70D40F029F45F3F29F006
:101DE0000C94EE0D51110C94390E0C94F40D0E94CC
:101DF000160E68F39923B1F3552391F3951B550BF8
:101E0000BB27AA2762177307840738F09F5F5F4FCD
:101E1000220F331F441FAA1FA9F335D00E2E3AF00C
:101E2000E0E832D091505040E695001CCAF72BD024
:101E3000FE2F29D0660F771F881FBB1F2617370775
:101E40004807AB07B0E809F0BB0B802DBF01FF27A7
:101E500093585F4F3AF09E3F510578F00C94EE0D89
:101E60000C94390E5F3FE4F3983ED4F38695779552
:101E70006795B795F7959F5FC9F7880F911D969560
:101E8000879597F90895E1E0660F771F881FBB1FBC
:101E9000621773078407BA0720F0621B730B840B69
:101EA000BA0BEE1F88F7E09508950E941E0E88F089
:101EB0009F5798F0B92F9927B751B0F0E1F0660F0E
:101EC000771F881F991F1AF0BA95C9F714C0B1304F
:101ED00091F00E94380EB1E008950C94380E672FEF
:101EE000782F8827B85F39F0B93FCCF3869577957E
:101EF0006795B395D9F73EF4909580957095619567
:101F00007F4F8F4F9F4F08950E945A0D08F48FEF17
:101F100008950E945A0D880B990B0895A1E21A2E7C
:101F2000AA1BBB1BFD010DC0AA1FBB1FEE1FFF1F7D
:101F3000A217B307E407F50720F0A21BB30BE40BCD
:101F4000F50B661F771F881F991F1A9469F7609514
:101F50007095809590959B01AC01BD01CF010895CE
:101F6000EE0FFF1F0590F491E02D0994CF93DF93BE
:101F70008230910510F482E090E0E091CA03F09184
:101F8000CB0320E030E0C0E0D0E0309711F1408199
:101F9000518148175907C0F04817590761F48281E9
:101FA0009381209719F09B838A832BC09093CB0356
:101FB0008093CA0326C02115310519F04217530733
:101FC00018F49A01BE01DF01EF010280F381E02DD8
:101FD000DCCF2115310509F1281B390B24303105DF
:101FE00090F412968D919C9113976115710521F0D3
:101FF000FB019383828304C09093CB038093CA0335
:10200000FD01329644C0FD01E20FF31F81939193CD
:10201000225031092D933C933AC02091C80330914E
:10202000C903232B41F42091020130910301309325
:10203000C9032093C80320910001309101012115AB
:10204000310541F42DB73EB740910401509105018F
:10205000241B350BE091C803F091C903E217F30785
:10206000A0F42E1B3F0B2817390778F0AC014E5F08
:102070005F4F2417350748F04E0F5F1F5093C90379
:102080004093C8038193919302C0E0E0F0E0CF0158
:10209000DF91CF9108950F931F93CF93DF93009714
:1020A00009F48CC0FC013297138212820091CA039A
:1020B0001091CB030115110581F420813181820F2C
:1020C000931F2091C8033091C9032817390779F568
:1020D000F093C903E093C80371C0D80140E050E019
:1020E000AE17BF0750F412962D913C911397AD0196
:1020F0002115310509F1D901F3CF9D01DA013383AF
:10210000228360817181860F971F8217930769F47C
:10211000EC0128813981260F371F2E5F3F4F318315
:1021200020838A819B8193838283452B29F4F093BA
:10213000CB03E093CA0342C01396FC93EE9312972D
:10214000ED01499159919E01240F351FE217F307C4
:1021500071F480819181840F951F029611969C9352
:102160008E938281938113969C938E931297E0E0D5
:10217000F0E0D80112968D919C911397009719F079
:10218000F8018C01F6CF8D919C9198012E5F3F4F05
:10219000820F931F2091C8033091C9032817390774
:1021A00069F4309729F41092CB031092CA0302C04D
:1021B000138212821093C9030093C803DF91CF9159
:1021C0001F910F910895A0E0B0E0E9EEF0E10C94CA
:1021D000430EEC01009721F4CB010E94B60FB8C06A
:1021E000FC01E60FF71F9C0122503109E217F307AB
:1021F00008F4ACC0D9010D911C911197061717076F
:10220000B0F00530110508F49FC0C8010497861787
:10221000970708F499C002501109061B170B019388
:1022200011936D937C93CF010E944B108DC05B0185
:10223000A01AB10A4C01800E911EA091CA03B09160
:10224000CB0340E050E0E12CF12C109709F44AC098
:10225000A815B905D1F56D907C901197630182E0C6
:10226000C80ED11CCA14DB0480F1A3014A195B0912
:102270006A0182E0C80ED11C1296BC901297139688
:10228000AC91B5E0CB16D10440F0B282A383518368
:102290004083D9016D937C930AC00E5F1F4FC30129
:1022A000800F911FF90191838083EB2DFA2FE114A8
:1022B000F10431F0D7011396FC93EE93129744C0CA
:1022C000F093CB03E093CA033FC08D919C9111978B
:1022D0004817590708F4AC017D0112960D90BC9186
:1022E000A02DB3CF8091C8039091C903881599059B
:1022F000E1F446175707C8F480910001909101015D
:10230000009741F48DB79EB74091040150910501AB
:10231000841B950BE817F907C8F4F093C903E09301
:10232000C803F901718360830FC0CB010E94B60F0F
:102330007C01009759F0A801BE010E94B211CE01A4
:102340000E944B10C70104C0CE0102C080E090E0A3
:10235000CDB7DEB7EEE00C945F0E81E090E0F8942C
:102360000C94CB11FB01DC0102C001900D92415095
:102370005040D8F70895FB01DC018D910190801940
:102380000110D9F3990B0895FB01DC0101900D9226
:102390000020E1F7089510E0CDE5D0E004C0FE0193
:1023A0000E94B00F2196CE35D107C9F7F894FFCF20
:1023B0000000CC038000000000000C018800D50064
:1023C000B300C7005301000000007B024B02430230
:1023D0002F0220021F0257656174686572205368DE
:1023E00069656C64204578616D706C65002D2D2DDC
:1023F0002D2D2D2D2D2D2D2D2D2D2D2D2D2D2D2D0D
:102400002D2D2D000D0A00576561746865722053EB
:102410006869656C64206F6E6C696E652100536538
:102420007269616C20726561643A200067657400AE
:102430004E657720646174613A200049324320631D
:102440006F6D6D756E69636174696F6E20746F2056
:1024500073656E736F7273206973206E6F7420776B
:102460006F726B696E672E20436865636B20736FB4
:102470006C64657220636F6E6E656374696F6E73F2
:102480002E0048756D6964697479203D2000252C03
:10249000002074656D705F68203D2000432C002093
:1024A0005072657373757265203D200050612C0079
:1024B0002074656D705F70203D2000462C00206CFC
:1024C000696768745F6C766C203D2000562C002094
:1024D00056696E50696E203D200056004E6F006EAA
:0C24E000616E00696E66006F7666000099
:00000001FF
